:020000040800F2
:10000000503400201D020008F30C000827020008ED
:10001000A10C0008A1070008A54C00080000000082
:10002000000000000000000000000000B13B0008DC
:1000300039090008000000002F070008D53C00081F
:1000400037020008370200083702000837020008AC
:10005000370200083702000837020008370200089C
:10006000370200083702000837020008370200088C
:10007000370200083702000837020008370200087C
:10008000370200083702000837020008370200086C
:10009000370200083702000837020008370200085C
:1000A000370200083702000837020008370200084C
:1000B000993D00083702000837020008370200089F
:1000C000370200083702000837020008370200082C
:1000D0003702000837020008A1450008370200086F
:1000E000370200083702000837020008370200080C
:1000F00037020008370200083702000837020008FC
:1001000037020008370200083702000837020008EB
:1001100037020008370200083702000837020008DB
:1001200037020008370200083702000837020008CB
:1001300000F002F800F062F80AA090E8000C824497
:100140008344AAF10107DA4501D100F057F8AFF274
:10015000090EBAE80F0013F0010F18BFFB1A43F0A5
:1001600001031847F85B0000185C00000A444FF0D8
:10017000000C10F8013B13F0070408BF10F8014B06
:100180001D1108BF10F8015B641E05D010F8016B4B
:10019000641E01F8016BF9D113F0080F1EBF10F8AF
:1001A000014BAD1C0C1B09D16D1E58BF01F801CBD2
:1001B000FAD505E014F8016B01F8016B6D1EF9D555
:1001C0009142D6D37047000000230024002500266A
:1001D000103A28BF78C1FBD8520728BF30C148BFAA
:1001E0000B607047642900F0BF80732900F0B7816D
:1001F000002070471FB51FBD10B510BD00F03AFAC2
:100200001146FFF7F7FF05F077F900F058FA03B44D
:10021000FFF7F2FF03BC04F046FD000009488047E9
:1002200009480047FEE7FEE7FEE7FEE7FEE7FEE7D8
:10023000FEE7FEE7FEE7FEE704480549054A064BF0
:1002400070470000F53C000831010008502A0020EA
:1002500050340020502C0020502C002072B67047E3
:1002600062B67047EFF3108072B6704780F3108863
:10027000704730BF704720BF7047B0FA80F07047BA
:1002800090FAA0F0B0FA80F0704790FAA0F07047B2
:10029000704700000FB4044910B503AA029800F09B
:1002A00063F910BC5DF814FB040000202DE9F04157
:1002B0000E460446002020622046E168884730B39D
:1002C000252805D0D4E901219047206A401CF2E797
:1002D000E168204600278847050018D0A5F14100B5
:1002E000192802D820354FF40067324629462046A7
:1002F0002760FFF777FF40B1012804D0F61D26F0F4
:1003000007060836D8E7361DD6E72846DAE7206A1A
:10031000BDE8F08170B50C460546012A05D0287865
:10032000800600D5EA69002302E0012305E05B1C9A
:10033000934202D2E05C0028F9D1A869E618C01AFD
:10034000A861286A184428622846AFF3008004E0B8
:10035000D5E9012114F8010B9047B442F8D328469F
:10036000AFF3008070BD00002DE9F0410646002487
:1003700010687529314616A510D0AFF3008000280B
:1003800002DA404213A507E031688A0701D512A5B9
:1003900002E0490704D511A5012401E0AFF3008074
:1003A00000210A2206F1240709E0B0FBF2FCB0FBB1
:1003B000F2F302FB1C00303078541846491C002828
:1003C000F3D123462A463046BDE8F04100F05CB840
:1003D000000000002D0000002B00000020000000A5
:1003E00010B5002000F0D2F8FFF706FFBDE810407E
:1003F000012004F058BC032A40F2308010F0030CB6
:1004000000F0158011F8013BBCF1020F624498BF67
:1004100011F801CB00F8013B38BF11F8013BA2F104
:10042000040298BF00F801CB38BF00F8013B11F07F
:10043000030300F0B280083AC0F0088051F8043B92
:10044000083A51F804CBA0E80810F5E7121D5CBF8C
:1004500051F8043B40F8043BAFF30080D20724BFBF
:1004600011F8013B11F801CB48BF11F8012B24BF53
:1004700000F8013B00F801CB48BF00F8012B7047A2
:1004800070477047704770472DE9F0470D46994611
:100490009246044600F124080168880604D5E06904
:1004A00021F01001216000E00120A84201DD471B7E
:1004B00000E00027A1697A1902EB0900081AA0617F
:1004C0002078C00602D42046AFF30080002608E062
:1004D000D4E901211AF806009047206A401C761CD6
:1004E00020624E45F4DB2078C0060AD52046AFF3E3
:1004F000008006E0D4E9012130209047206A401CAA
:100500002062381EA7F10107F4DC07E0D4E90121DD
:1005100018F805009047206A401C2062281EA5F1AB
:100520000105F3DC2046AFF300802078000602D5F9
:100530000220BDE8F0870120FBE710B5436913B145
:10054000AFF3008001E0FFF7E5FE012010BD127857
:1005500000F124010A7000224A700122EDE71168BF
:100560004FF0FF32E9E70000074B70B50D467B44C2
:1005700000F04BF80446284600F05AF810B14FF04E
:10058000FF3070BD204670BD0B4F000010B500F06D
:1005900059F8BDE8104000F04FB810B5203AC0F04F
:1005A0000B80B1E81850203AA0E81850B1E8185074
:1005B000A0E81850BFF4F5AF5FEA027C24BFB1E8B1
:1005C0001850A0E8185044BF18C918C0BDE8104022
:1005D0005FEA827C24BF51F8043B40F8043B08BF2B
:1005E0007047D20728BF31F8023B48BF11F8012BF2
:1005F00028BF20F8023B48BF00F8012B70470000DD
:1006000001694A1C02610878704700B58FB0CDE9D6
:1006100001310021059105497944CDE903101146C6
:100620006846FFF743FE0FB000BD0000E5FFFFFF87
:10063000007B00F080007047002801D004F033BB3D
:100640007047000010B5002102A000F041F8012021
:1006500010BD0000534947414252543A2041626E56
:100660006F726D616C207465726D696E6174696F13
:100670006E000000754600F045F8AE46050069467C
:10068000534620F00700854618B020B5FFF7D4FD8B
:10069000BDE820404FF000064FF000074FF0000883
:1006A0004FF0000B21F00701AC46ACE8C009ACE804
:1006B000C009ACE8C009ACE8C0098D46704710B568
:1006C0000446AFF300802046BDE81040FFF79FBD11
:1006D00070B505460C460A2000E06D1C04F0E4FAF3
:1006E00035B128780028F8D102E0641C04F0DCFA67
:1006F00014B120780028F8D1BDE870400A2004F039
:10070000D3BA000000487047EC29002018484FF089
:10071000FF010170002080F309881648016881F309
:10072000088815484FF08051016062B6FEE772B646
:10073000EFF3098028B1203880E8F00F0F490968ED
:10074000086000B50E4880475DF804EB0D480E497F
:100750000A78027009480D490A680260106890E83A
:10076000F00F203080F309884EF0040E62B6704717
:1007700022ED00E04C01002004ED00E0FC0100202F
:10078000251A00088E0100208F01002000020020A1
:1007900000B585B0684603F0C1F9019805B000BD09
:1007A000FEE70000054910B50020486000F0A6F8FB
:1007B00000F006F8BDE8104000F086B830010020D7
:1007C0002DE9F041104F002635463E807E80BE6008
:1007D000FE607E61BE613E61FFF744FD80460024FD
:1007E0007E6100F049F800F057F87869641C240431
:1007F0000544240CF4D0C7E904564046BE61BDE868
:10080000F041FFF733BD00003001002003490969C2
:10081000884201D9401A70470020704730010020FB
:1008200010B5FFF71FFD04494C69FFF71FFD204677
:10083000BDE81040FFF7EABF3001002010B5FFF718
:10084000EFFF0446FFF70EFD034A00215161FFF759
:100850000DFD204610BD00003001002010B5FFF74F
:1008600001FD04498C69FFF701FD2046BDE81040F9
:10087000FFF7CCBF3001002010B5064C2088401C8B
:100880002080608810B900F051F8A0606088401C9A
:10089000608010BD3001002010B50A4C6088401EF9
:1008A0000004000C60800CD100F040F8E060A1680A
:1008B000401A6169814200D26061A169814200D21F
:1008C000A06110BD3001002010B5FFF7CBFC04463D
:1008D000FFF7D2FF1021054800F0E3F9FFF7DCFF36
:1008E0002046BDE81040FFF7C1BC0000D80F002033
:1008F00001494860704700003001002010B5FFF743
:1009000047FF08490A6842F080720A6006490022DF
:100910004A600A6842F001020A60BDE81040FFF731
:10092000E7BF0000FCED00E0001000E00148406877
:1009300070470000001000E07047000038B5044622
:100940000C48007801280ED10B4D2888844205D32D
:10095000B4FBF0F06A46002101F092F82888B4FB5D
:10096000F0F100FB11444FF47A70604300F006F898
:1009700038BD0000600100200200002070B54FF07B
:10098000E0256C690949AB69097848430021AA69E7
:100990009A42FCD002D2A3EB020302E0A4EB0206CF
:1009A0003344194413468142F1D370BD0000002046
:1009B0002DE9F0410446464800260D46844215D0F4
:1009C0004448844212D0444884420FD04348844271
:1009D0000CD04348844209D04248844206D0424861
:1009E000844203D0B22141A004F060F9E87888B1D4
:1009F00004280FD028280DD048280BD0142809D05F
:100A0000102807D01C2805D0182803D0B32137A000
:100A100004F04CF9288818B9B42134A004F046F940
:100A2000E87800F00F07C0060CD5A878012807D099
:100A3000022805D0032803D0BB212CA004F036F9EE
:100A4000A878074328784FF00F0C10F0FF0F4FF0F5
:100A5000010E1BD021682A880EFA06F0024082425D
:100A600010D1B2000CFA02F321EA030307FA02F1F3
:100A7000EA781943282A02D0482A02D002E06061AD
:100A800000E02061761C082EE5D321602888FF282D
:100A90001CD96168002000F108030EFA03F22B88CC
:100AA000134093420ED183000CFA03F6B14307FAC8
:100AB00003F6EB783143282B00D16261EB78482BA9
:100AC00000D12261401C0828E5D36160BDE8F081B7
:100AD00000080140000C01400010014000140140DA
:100AE00000180140001C0140002001402E2E5C46F1
:100AF000574C49425C5372635C73746D3332663198
:100B000030785F6770696F2E6300000070B504462F
:100B100011480D46844216D01048844213D0104824
:100B2000844210D00F4884420DD00F4884420AD02E
:100B30000E48844207D00E48844204D040F2791116
:100B40000CA004F0B3F825B94FF4BD7109A004F06E
:100B5000ADF8656170BD000000080140000C014067
:100B6000001001400014014000180140001C014029
:100B7000002001402E2E5C46574C49425C53726364
:100B80005C73746D3332663130785F6770696F2ED5
:100B90006300000070B5044611480D46844216D02B
:100BA0001048844213D01048844210D00F48844229
:100BB0000DD00F4884420AD00E48844207D00E4818
:100BC000844204D040F269110CA004F06FF825B9FA
:100BD0004FF4B57109A004F069F8256170BD0000FB
:100BE00000080140000C01400010014000140140C9
:100BF00000180140001C0140002001402E2E5C46E0
:100C0000574C49425C5372635C73746D3332663186
:100C100030785F6770696F2E6300000008B50121AE
:100C2000082002F04BFF2020ADF8000001208DF8D5
:100C3000020010208DF8030069460248FFF7B8FE55
:100C400008BD0000000C014008B50121402002F061
:100C500035FF2020ADF8000001208DF802001020A3
:100C60008DF8030069460248FFF7A2FE08BD0000A8
:100C700000180140012000F001B8000070B50446E2
:100C8000FFF7F0FA0546FFF7F7FD04480460FFF7A9
:100C900003FE2846BDE87040FFF7E8BA2C010020AB
:100CA000FEE70A46002100F001B8704710B5002A9F
:100CB0001ED000281CD000231C46641C41EA0323DC
:100CC000042CFAD310F0030404D109E0521E00F8FA
:100CD000011B641C22B1042CF8D301E008C0121FD0
:100CE000042AFBD202E000F8011B521E002AFAD1AE
:100CF00010BD704770B50446C0780F2528B1012893
:100D000003D075211FA003F0D1FF6078102803D312
:100D100076211CA003F0CAFFA078102803D3772106
:100D200018A003F0C3FFE0780122F8B11A48006868
:100D3000617800F4E060C0F5E060000AC0F10403EF
:100D4000C540A0789940284008432178000101F16E
:100D5000E02181F80004207800F01F018A4040095A
:100D6000800000F1E020C0F8002170BD207800F084
:100D70001F018A404009800000F1E020C0F8802176
:100D800070BD00002E2E5C46574C49425C53726386
:100D90005C6D6973632E63000CED00E07047704773
:100DA00010B5044600F0A2F83F4800220A21027064
:100DB0003E4802703E4802703E4802603E48026073
:100DC0003E4802703E4802703E4802703E48026053
:100DD0003E4802603E4802603E4802703E4800685D
:100DE000B0FBF1F03D4908603D49086830B13D482D
:100DF000006818B1096804C0491EFCD13A48027065
:100E000001F0C4FB01F080FC204600F0D1FE2088F8
:100E1000002847D1204601F0C7F92088002841D199
:100E2000204601F0CDF9208800283BD1204601F072
:100E300063FA2088002835D1204601F0D1FB2088B4
:100E400000282FD1204601F087FD2088002829D1D5
:100E5000204601F0E9FF2088002823D1204601F038
:100E600017F9208800281DD1204600F0ABFF20880C
:100E7000002817D1204602F03FFC2088002811D11D
:100E8000204601F02FFF208800280BD1204602F0D9
:100E900087FC2088002805D100F089FEBDE81040BD
:100EA000FFF77CBF10BD000058010020600100204A
:100EB000A8010020FC010020000200208E0100207B
:100EC0008F010020900100209C010020A001002043
:100ED000A4010020B0010020305D0008AC0100201A
:100EE0000C5D0008085D0008DE01002030B5094CEB
:100EF0000020094B0246216801E004C1401C1D6826
:100F0000A842FAD32068054900EB8500001F08605D
:100F100030BD0000085D00080C5D00084C01002099
:100F200005480078012805D104490878FA2801D23B
:100F3000401C08707047000060010020580100202C
:100F4000194810B5007801282DD1FFF78BF9174902
:100F50000446087810B3401E10F0FF0008701DD141
:100F600013480078D0B901F0FFFA1249087012490D
:100F700000EB400051F82000104908601049096852
:100F800088420BD050F8901F491C01600D48016841
:100F9000491C01600C494FF0805008602046BDE8B4
:100FA0001040FFF763B910BD600100205801002018
:100FB000A80100208F01002014260020000200203C
:100FC000FC010020D401002004ED00E0164810B51B
:100FD0000078002826D115480078002822D1FFF794
:100FE00041F9044601F0C0FA11490870114900EBBB
:100FF000400051F8200010490860104909688842F3
:101000000BD050F8901F491C01600D480168491C25
:1010100001600C494FF0805008602046BDE8104048
:10102000FFF724B910BD000058010020A8010020DE
:101030008F0100201426002000020020FC01002067
:10104000D401002004ED00E070B504461248007899
:1010500010B146F662501DE010480078012802D019
:1010600045F6896016E00E4D2878FA2802D345F23D
:1010700009200FE0FFF7F6F80646FFF7FDFB28789A
:10108000401C287001F008FCFFF706FC3046FFF713
:10109000EDF80020208070BD580100206001002084
:1010A000A80100202DE9F04116460C460546FFF741
:1010B000D9F80746FFF7E0FB29460D48002501292E
:1010C00001D0057001E0012101700A480CB10460F3
:1010D00005E009490A220968B1FBF2F10160FFF756
:1010E000DBFB3846FFF7C2F83580BDE8F081000031
:1010F000B0010020AC010020305D000870B504464E
:101100001848007810B146F6655029E01648007876
:10111000012802D045F6896022E0144E307890B163
:10112000FFF7A0F80546FFF7A7FB3078401E10F048
:10113000FF0030700AD0FFF7AFFB2846FFF796F8A4
:1011400046F663500CE046F6645009E001F0B2FB4D
:10115000FFF7A2FB2846FFF789F8FFF737FF0020CB
:10116000208070BD5801002060010020A8010020EF
:1011700070B50F4D0446287818B145F68A60208076
:1011800070BD01F0F1F90B4908700B4908700B496B
:1011900000EB400051F82000094908600949086047
:1011A00001202870FFF7B2FA43F69920E7E7000024
:1011B000600100208F0100208E01002014260020F5
:1011C00000020020FC0100202DE9F0410746FFF756
:1011D00049F80446FFF750FB2E48002505602E48CD
:1011E00005802E4805802E4805602E4805602E4853
:1011F00005602E4805602E4805602E480581FFF7E2
:101200004BFB2046FFF732F8FFF72CF80646FFF7B6
:1012100033FB2948046818E0FFF724F80646FFF777
:101220002BFBC4F8B450C4F8B85044F8785F256379
:10123000A561A582E5826562A562FFF777FB44F8A8
:10124000200FA4F134008581A46AFFF725FB304606
:10125000FFF70CF8002CDFD1FFF704F80646FFF784
:101260000BFB1648046806E0FEF7FCFF0646FFF796
:1012700003FBA585A469FFF70FFB3046FEF7F6FFD9
:10128000002CF1D102F056F902F058FB3D80BDE888
:10129000F0810000740100206E010020BE010020DA
:1012A000D0010020E4010020EC0100205C010020BE
:1012B000A001002008260020D80100209401002071
:1012C000F8B504466946244800F082FBBDF80000EA
:1012D00058BB6A460021022000F0D2FBBDF8000096
:1012E00018BBFEF7BFFF0746FFF7C6FA1B4E0025E7
:1012F0003560FFF7D1FA3846FEF7B8FF18491948AC
:101300000A6803689A4202D9B2FBF3F010B90A21C5
:10131000B2FBF1F06A46002100F0B2FB69460E48CC
:1013200000F0E0F9BDF8000008B12080F8BDFEF73C
:1013300099FF0746FFF7A0FA0B480C490560306893
:1013400008600B4901200870FFF7A6FA3846FEF73F
:101350008DFF2580F8BD000024290020C001002059
:10136000305D00081C5D0008D0010020C401002091
:10137000CC010020704700002DE9FF4F83B00446E8
:101380007248DDE91785DDE910970078DDF854A093
:10139000139E10B147F24A102AE04CB1059850B1A3
:1013A00067B16B48006886420BD246F630601FE09A
:1013B00047F2AD101CE047F24F1019E046F62F60DF
:1013C00016E01298B04202D346F6316010E046F2C1
:1013D0007320B9F1200F0BD25FEA090103D0B9F1F4
:1013E0001F0F02D008E05B4900E05B498C4203D04C
:1013F000288007B0BDE8F08F204601F025FD4FF0B2
:10140000000BA5F800B05FEAC8700AD05FEA8870E8
:1014100007D5384600215A4601E004C0491CB142B4
:10142000FBD31298CDE9006807EB8005DDE90501E3
:101430002B463A4600F09CFA0599A1620699E162B2
:101440000499216284F83790C4F854A0A560206004
:101450005FEA0A0024D0A06516986762A663606000
:10146000A4F83C800020594604EB8002401CD16760
:1014700010F0FF00F8D004F16400149900F0F0FEC1
:10148000204600F075F8FEF7EDFE0646FFF7F4F98A
:10149000324D2878401CC0B22870012803D004E0E7
:1014A0002F480068D7E701F0F7F9FFF7F5F9304664
:1014B000FEF7DCFE94F8370001F072F8204601F0E8
:1014C00069F9204601F082FC26490888401C088002
:1014D00025480078012821D0FEF7C4FE0446FFF716
:1014E000CBF92878401E10F0FF0129700ED101F0D1
:1014F000E1F91E48008848B1FFF7CEF92046FEF713
:10150000B5FE07B0BDE8F04F01F0A2B9FFF7C4F98E
:1015100007B02046BDE8F04FFEF7A8BEFEF7A2FEDA
:101520000446FFF7A9F92878401E10F0FF01297042
:1015300001D101F0BFF9FFF7AFF92046FEF796FEA3
:1015400007B0BDE8F04FFFF741BD00005801002093
:101550002C5D00084025002078240020A8010020F0
:10156000AC010020DC010020600100206C010020A3
:10157000704700002DE9F041044652480D460078BE
:1015800010B147F24E100AE04F48844202D147F2B0
:101590004C1004E04D48844204D147F24D100880BD
:1015A000BDE8F0815CB9FEF75DFE0646FFF764F921
:1015B00047480468FFF770F93046FEF757FEFEF71C
:1015C00051FE0746FFF758F9424E3078401CC0B232
:1015D0003070012801D101F05FF9FFF75DF938465D
:1015E000FEF744FE94F8360008283DD2DFE800F00C
:1015F00004080C0C1C080C0C204601F0FFF813E04A
:10160000204601F07BFF0FE0204601F077FF94F8C1
:101610003400072808D2DFE800F0070407040404B8
:101620000400204600F013FF04F1640000F0FEFD0A
:10163000204600F055F8204601F0DAFB26490888DC
:10164000401E0880204601F0FFFBFF2084F8360092
:10165000FEF708FE0446FFF70FF93078401E10F041
:10166000FF01317021D022E0FEF7FCFD0446FFF7B8
:1016700003F93078401E10F0FF0131700CD101F0F9
:1016800019F91648008838B1FFF706F92046FEF729
:10169000EDFD01F0DDF804E0FFF7FEF82046FEF76F
:1016A000E5FD46F62D6028807AE701F003F9FFF7A3
:1016B000F3F82046FEF7DAFD00202880BDE8F0416F
:1016C000FFF784BC5801002078240020402500202A
:1016D000FC010020A8010020DC0100206C0100209A
:1016E000704700007FB50D460446FEF7BBFD064679
:1016F000FFF7C2F81CB113480068844208D1FFF715
:10170000CBF83046FEF7B2FD47F2571028807FBD78
:10171000FFF7C2F83046FEF7A9FD0B48007850B13C
:101720000022CDE902250092134601922146074886
:1017300000F07CFB7FBD04B029462046BDE8704028
:1017400001F096BCFC010020580100205452455382
:10175000704700002DE9F0478146574814461D4662
:101760000078884610B146F2AE1006E0080006D0B8
:10177000B1F5004F03D045F6256018803DE0002606
:1017800004B12660FEF76EFD8246FFF775F84B4FF9
:101790003868416CD9B1491E884641640CB1006C6F
:1017A0002060FFF7C3F839680A6C801AC1F8A400FA
:1017B000D1F8A820824201D2C1F8A800FFF76CF846
:1017C0005046FEF753FD2E804046BDE8F0875FEAA5
:1017D000084007D5FFF760F85046FEF747FD46F290
:1017E000B01009E03648017849B1FFF755F8504686
:1017F000FEF73CFD46F6635028800020E5E7012116
:101800008046017001F048F8FFF746F85046FEF7B1
:101810002DFD00214B460722084600F079FDFEF71A
:1018200021FD8146FFF728F898F80000401E10F0CF
:10183000FF0088F8000001D101F03CF8FFF72CF818
:101840004846FEF713FDFFF7C1FBFEF70BFD804690
:10185000FFF712F8396891F8350030B1012816D039
:1018600003281AD046F62E601BE074B1086C206085
:10187000FFF75CF839680A6C801AC1F8A400D1F847
:10188000A820824201D2C1F8A8002E800AE00CB143
:10189000086C206046F2A91003E004B1266047F20C
:1018A000D92028803868446CFEF7F6FF4046FEF7E2
:1018B000DDFC204689E7000058010020FC010020E3
:1018C000A80100202DE9F0470546274816460F4697
:1018D00000781C4610B147F259100AE046F2D520B4
:1018E0003FB136B1FEF7BEFC8146FEF7C5FF1DB124
:1018F00004E01880BDE8F0871C4805684FF0000838
:10190000286858B195F83C00C00713D0FEF7C4FF13
:101910004846FEF7ABFC0020696A1AE0FEF7BCFF00
:101920004846FEF7A3FCC7F8008047F25210C6F8FD
:1019300000800AE0FEF7B0FF4846FEF797FCC7F8C4
:10194000008047F25410C6F800802080D2E7401C87
:10195000091D0A68002AFAD03860A96B081A30609D
:10196000A4F80080C6E7000058010020FC01002018
:1019700010B5029C02EB84024FF0807442E902042D
:10198000124842F80C0DA2F108004FF012344FF04B
:10199000033260E80A244FF002324262C0E90713C2
:1019A0004FF011318161D1004161611001619100FD
:1019B000C1604FF0073181604FF0063141604FF058
:1019C000053140F804195100016010BD7131000863
:1019D0001FB5104A904202D147F25B1004E00E4A54
:1019E000904203D147F25C1008801FBD0B4A127869
:1019F00052B10022CDE90221014600921346019224
:101A0000074800F013FA1FBD04B0BDE8104001F014
:101A10007FBC0000782400204025002058010020D1
:101A20005453555370B5FEF781FF124C124A21688A
:101A30001368994207D0D1F89820821A41F8942F60
:101A40008D682A448A60C3F89800FEF7F7FE216883
:101A5000D1F8B420824201D2C1F8B400074AD1F8CB
:101A6000B8301068834201D2C1F8B800002010607D
:101A700070BD0000FC01002000020020A401002035
:101A80002DE9F041804636480D461446007810B1E5
:101A900047F2752020E0334E307810B146F663509F
:101AA0001AE045B1022D06D0042D07D0082D02D032
:101AB00045F6256010E0B8F1000F0BD0FEF7D2FB21
:101AC0000746FEF7D9FE3078401CC0B230700128BE
:101AD00005D006E047F27E201080BDE8F08100F0DE
:101AE000DBFEFEF7D9FE3846FEF7C0FB1E4F012194
:101AF000234638682A4680F83610414601F092FCA9
:101B0000208898B1FEF7AEFB0446FEF7B5FE3078AC
:101B1000401E10F0FF01317001D100F0CBFEFEF746
:101B2000BBFE2046BDE8F041FEF7A0BB386800F0E0
:101B300065FEFEF797FB0546FEF79EFE3078401ED9
:101B400010F0FF01317001D100F0B4FEFEF7A4FEE9
:101B50002846FEF78BFBFFF739FA00202080BCE710
:101B600058010020A8010020FC01002000B585B02C
:101B700000F01CF8FEF7DAFE04AA0021039200919F
:101B8000CDE9011006480749002300781A4600EB0A
:101B9000400001EB8001044800F048F905B000BDA9
:101BA0008E010020142600205449434B7047704793
:101BB000034A00211160034A118001807047000030
:101BC000780100207C0100202DE9F05F9A469046C4
:101BD0000D4604460A9EFEF745FB8346FEF74CFE83
:101BE0005FEA080023D0012807D0B0F5004F1ED0CF
:101BF0006FF4004118EB010F11D1206AA843C4E92A
:101C0000080A208A04F108054FF0000990B14D4FF1
:101C10003878401CC0B23870012815D016E0FEF7A5
:101C20003BFE5846FEF722FB45F625606CE0206A35
:101C30002843E4E7FEF730FE5846FEF717FBA6F808
:101C40000090206ABDE8F09F00F026FEFEF724FE1B
:101C50005846FEF70BFB2D6833E090F888106D684E
:101C600001F00F0101291BD0022921D004290DD038
:101C7000082910D0FEF7F6FA0446FEF7FDFD387885
:101C8000401E10F0FF0139702AD036E0216AD0F8EA
:101C90008020114009E0216AD0F8802011400BE03B
:101CA000D0F88010236A0A4699438A4205D007E09B
:101CB000D0F88010226A914311B1524600F046F8E4
:101CC00015B1A8680028C8D1FEF7CCFA0546FEF782
:101CD000D3FD3878401E10F0FF00387017D018E0A0
:101CE00000F0E8FD1848008838B1FEF7D5FD204621
:101CF000FEF7BCFA00F0ACFD04E0FEF7CDFD204697
:101D0000FEF7B4FA43F6FF20308000209AE700F097
:101D1000D1FDFEF7C1FD2846FEF7A8FA5FEA0840AC
:101D200001D4FFF753F9FEF79DFA0546FEF7A4FD2F
:101D3000246AFEF7B1FD2846FEF798FAA6F800904F
:101D400020467FE7A80100206C01002070B5002527
:101D5000C0F8841080F8355080F83450044602648E
:101D600090F8360008280ED2DFE800F00D0D0404CC
:101D70000D0D0A0A204601F06DF984F8365002E094
:101D8000042084F836002046BDE8704000F05FBBB8
:101D90000A4C0B4DFEF766FA0646FEF76DFD20680D
:101DA000401C20602868401C2860FEF775FD304606
:101DB000FEF75CFAFEF7F3FFECE7000054010020A9
:101DC000C001002000B50E4A89B0002111600B222D
:101DD00005910691CDE907200A480B4A0B4B006894
:101DE00012681B680292CDE903011F20CDE90003B0
:101DF0000023074A07A10C48FFF7BEFA09B000BD4F
:101E000054010020F05C0008EC5C0008E85C00086D
:101E1000911D000875432F4F532D494949204964AE
:101E20006C65205461736B00782400202DE9F84F15
:101E30001D46DDE90CB4DDE90AA916460F468046C9
:101E4000FEF710FA0090FEF717FD1D491D4A08889D
:101E5000128890422DD2401C80B208801A490A880C
:101E6000824200D20880194A01211068C0F800801F
:101E7000C0E902760582C0F814A0A0F81890C0F856
:101E80001CB0406810601248018112490160416035
:101E9000002000F085FB1048007808B10F49087059
:101EA00000202080FEF7F8FC0098BDE8F84FFEF710
:101EB000DDB90B480188491C018044F25360F0E70A
:101EC0006C010020F85C00086E0100206401002015
:101ED00014260020402500208E01002090010020C3
:101EE000700100203EB5374C374A02AB20680168CC
:101EF0008D1A914245D015DC344A89182DD0344AC8
:101F0000891822D0334A891832D0334AD14208D1B5
:101F1000C169CDE90013038B028AC168806800F0B3
:101F2000F7FF3EBD2D4969181DD02D4A891823D0D1
:101F30002C4AD142F5D1C169CDE90013038B028A45
:101F4000C168806800F058FB3EBD0093028BC369F6
:101F500041698068FFF738FE3EBD018BC269806829
:101F600000F006FD3EBD8068194601F081F83EBDD7
:101F7000018BC269806822E08068194601F0C8F9C7
:101F80003EBD19481949007800EB400001EB800084
:101F900000F0AEFC206802AB0021C269144801F0D9
:101FA000F3F814490868401E0860E9D11248006837
:101FB0000860FEF7BBFC024602AB00210F4801F0AF
:101FC000E3F83EBD680100205449434BADBAB2BEB0
:101FD0000DF90BFAF2F8F7FF0006F6FF00F7FDF730
:101FE00000FFEFFF03FE0FFE9001002014260020EB
:101FF0005C280020F8010020F401002024290020A2
:102000001F4E204C0025204FFEF72CF98046FEF78E
:1020100033FC208820B3FEF73FFC4046FEF726F94C
:10202000FEF784FC8046FFF75DFFFEF77FFC31681A
:10203000A0EB0800814200D23060FEF713F9804621
:10204000FEF71AFC3868406838602088401E2080FF
:10205000FEF722FC4046FEF709F9002DD4D0D1E767
:102060000A49002008810860486000F0A9FAFEF7DC
:1020700013FC4046FEF7FAF8FEF7A8FFC2E700009F
:10208000740100206C01002068010020142600204B
:10209000F0B52F492F4D89B000240C80296831B14B
:1020A0002D4E3188022905D244F2546135E044F2C4
:1020B000526132E029490023294F0C60296801F15F
:1020C000200210E041F8087B5B1C41F8084B9BB2F2
:1020D00041F8044C21F8104B41F80C4C21F8084C05
:1020E00041F81C2C2032B6F800C06345EAD32A68B8
:1020F00041F81C2C1B490A601B490A601B491D4AF8
:102100000C801B490C80116851B11B491B4D0B6899
:102110002D68AB4207D244F25661018009B0F0BD90
:1021200044F25561F9E7032305940694CDE907309D
:1021300008681349126800230968CDE90304009474
:10214000CDE901210F4A10A11648FFF715F9E5E77F
:1021500070010020F45C0008F85C000874010020A5
:102160004E4F4E4564010020680100206C010020A4
:102170006E010020FC5C0008045D00082C5D000876
:10218000005D00080120000875432F4F532D494979
:102190004920495352205175657565205461736B10
:1021A0000000000040250020034A00211160034A7E
:1021B0001180018070470000800100208401002010
:1021C000F0B5174E316859B1164F398859B13B886F
:1021D00031685B1E9DB2002301F110021C460FE026
:1021E00045F21E7101E045F21D710180F0BDE1E88C
:1021F00002245B1C21F8084B9BB241F8044C1032BE
:10220000AB42F4D30C604C600C81CC600649326860
:102210000A603A888A80CC800C810480F0BD00007E
:10222000145D0008105D00080826002010B54289E2
:1022300092B10A4903680C681C6043680B60CB8844
:1022400044891B1BCB808B88448923448B800021CD
:102250004181818101604160104610BD0826002047
:10226000018100214181818101604160704700004E
:10227000F0B54489DDE905E60589AC4202D346F2B2
:1022800093501EE01B4DAF88CFB12C687F1ED4F851
:1022900000C0C5F800C0AF80EF887F1CBFB2EF80E0
:1022A000B5F808C0BC4500D22F814789002557B139
:1022B000DB060ED403681C60046025600CE045F268
:1022C0001D703080F0BD04600123446043812560AF
:1022D00005E043682360446043895B1C4381878930
:1022E00043899F4200D2838161602281C4F80CE05F
:1022F0003580F0BD08260020034A00211160034A02
:102300001180018070470000880100208C010020AE
:102310002DE9F041114D07460C4628680026194664
:1023200080F8342080F8356000F03AFD64B1FC603C
:1023300004F1080601223946286800F011F83946F0
:10234000304600F057F802E02868C687066320464A
:102350002968BDE8F04100F01BB80000FC01002036
:1023600010B5C2870024234601630EE04B6041F89C
:10237000103B641C41F8103BA4B241F80C3C21F81E
:10238000083C41F8043C41F8180C9442EED310BDCF
:1023900038B14268C1F8C42081688968096AC1619E
:1023A000704791F83400022803D0072803D004A016
:1023B00002E004A000E005A0C1F8C40070470000DE
:1023C000200000005461736B205100005461736B56
:1023D0002053656D0000000005A2C1F8C42081688B
:1023E00011B18968096A00E001A1C161704700006C
:1023F0002000000030B58A68002592F83740028935
:102400001AB1521C028102680BE0012202814D6068
:102410000D60016014E0936893F83730A34203D84D
:102420005268002AF7D107E032B1136853B1C1E90D
:1024300000325960116030BD4D6042680A605160E1
:10244000416030BD1160C1E90052016030BD70B51E
:102450000646C58F046B07E0E0682146083000F0AF
:1024600009F86D1EADB22034002DF5D10020F087A3
:10247000306370BD10B502890024012A0BD00A68B0
:1024800062B14B6873B153601A600289521E0281B7
:102490004C600C6010BD04604460F6E74A6814604C
:1024A0000260F2E754604260EFE7F8B50C4605467B
:1024B00091F836100026069808293BD2DFE801F093
:1024C0003A3A04043A3A202094F83410032911D0FF
:1024D000E265A4F86030206435B12046FFF7B7FF0D
:1024E00021462846FFF778FF204600F0B3FD84F828
:1024F00036601BE000902146284600F022F8EBE70A
:1025000094F83410032916D0E265A4F860302064F2
:10251000204600F0F3FF35B12046FFF798FF214633
:102520002846FFF759FF042084F8360084F8356008
:1025300084F83460F8BD00902146284600F001F888
:10254000E6E770B50C6B049DC98F0AE0E668864229
:1025500004D1C4E904022383E56170BD491E89B238
:1025600020340029F2D170BD10B50024064802E0E5
:102570002034E4B2001D01680029F9D00846FDF7B7
:102580007CFE2044C0B210BD500100200020034A50
:10259000014642F82010401CFBD07047500100203B
:1025A00000F01F0241090120C2F11F029040034ABE
:1025B00052F82130034342F8213070475001002087
:1025C00000F01F0241090120C2F11F029040034A9E
:1025D00052F82130834342F82130704750010020E7
:1025E000034A00211160034A1180018070470000F6
:1025F00094010020980100202DE9FF4F83B01E4672
:10260000DDE9107A93468146FDF72CFE0446FEF77D
:1026100033F9DFF8EC8098F80010491CC9B288F84B
:102620000010012901D100F037F9FEF735F92046F5
:10263000FDF71CFEB9F8104009F1080024B1B105FE
:1026400000D4012405683AE0F00601D4002300E03C
:102650001023CDE9007A5A4609F120000499FFF7CA
:1026600007FEFDF7FFFD0446FEF706F998F8001097
:10267000491E11F0FF0188F800100ED100F01AF980
:102680002048008848B1FEF707F92046FDF7EEFD27
:1026900007B0BDE8F04F00F0DBB8FEF7FDF807B07B
:1026A0002046BDE8F04FFDF7E1BDA9686D685B46C7
:1026B00000974846049AFFF7F8FE641EA4B2002C67
:1026C000F3D1FDF7CFFD0446FEF7D6F898F80010D9
:1026D000491E11F0FF0188F8001001D100F0EAF85E
:1026E000FEF7DAF82046FDF7C1FD300401D4FEF70D
:1026F0006DFC0021AAF8001007B0BDE8F08F0000C3
:10270000A80100206C0100200020074B024600EBCE
:10271000400103EB8101401C0A810A60C0B24A609B
:102720002028F4D3704700001426002010B504467A
:1027300090F83700FFF734FF074994F8370009781D
:102740008842204603D1BDE8104000F023B8BDE820
:10275000104000F003B800008E01002090F8371000
:102760000B4A01EB410102EB810100230A8942B1CE
:10277000521C0A810A68C0E903230A6810610860D4
:10278000704701220A81C360036108604860704796
:102790001426002090F837100A4A01EB410102EBA1
:1027A000810100230A893AB1521C0A81C3604A6838
:1027B0000261D0604860704701220A81C3600361F2
:1027C0000860F7E71426002010B50189002914D00D
:1027D000012912D00024022907D0D0E90013CA68C9
:1027E0001461C1E90343D96005E0D0E90012C1E9F1
:1027F0000342C2E90314C0E9002110BD70B50446CC
:1028000090F83700114900EB400001EB8001D4E95A
:102810000320002540B10B895B1E0B81C26092B181
:1028200010612561E56070BD2AB10889401E0881EC
:1028300015610A60F5E70D810D604D6094F8370071
:10284000FFF7BEFEEDE74860EBE70000142600202E
:1028500010B5FDF707FD0B4A002111700B4A0A491C
:10286000116051F8902F521C0A60094A1168491CE6
:102870001160084A4FF080511160BDE81040FDF72B
:10288000F5BC00008F010020402500200002002040
:10289000D401002004ED00E0044810B500780128C0
:1028A00003D1FEF743F80249086010BDA8010020DB
:1028B0009C0100200A4810B5007800280ED1FEF7D0
:1028C00035F808490968401A07490A68824200D267
:1028D000086006490A68824200D2086010BD000004
:1028E000A80100209C010020A0010020A4010020DC
:1028F00070B5044614480078012824D1FDF7B2FCD5
:102900000546FDF7B9FF2168B1B11048814213D0E7
:10291000886D10B1401E88650ED1208902280BD326
:102920000B48007840B92046FFF74EFF2068416D04
:1029300009B9084909688165FDF7AEFF2846BDE879
:102940007040FDF793BC70BDB001002078240020DA
:10295000A8010020AC010020034A00211160034AB5
:102960001180018070470000B4010020B8010020F0
:102970002DE9F84F1F46904689460646FDF772FC42
:102980000090FDF779FF308A06F108054FF0000B43
:1029900050B1DFF8B8A09AF80000401CC0B28AF825
:1029A0000000012817D018E0346A601C08D0641CAD
:1029B000C6E90848FDF770FF0098FDF757FC40E0B6
:1029C000FDF76AFF0098FDF751FC46F6C5503880C8
:1029D0000020BDE8F88FFFF75FFFFDF75DFF00986F
:1029E000FDF744FC5FEA895001D52C8900E0012401
:1029F0002D680AE0A9686D6800231A463046CDF8B4
:102A00000080FFF752FD641EA4B2002CF2D1346A9C
:102A1000FDF728FC0546FDF72FFF9AF80010491E28
:102A200011F0FF018AF8001001D1FFF743FFFDF715
:102A300033FF2846FDF71AFC5FEA094001D4FEF790
:102A4000C5FAA7F800B02046C3E70000A80100209F
:102A50000EB5924E924D3068440004E0204601AA23
:102A60000021FFF70DF828780128F7D101A8FEF71B
:102A7000ABFB8C4832680168914204D9B1FBF2F19A
:102A80005FEA010B03D100680A21B0FBF1FB4FF4B0
:102A90007A7942F210764FF00008FDF747FF029076
:102AA000FDF7DCFE80490860FDF7DCFB0546FDF71D
:102AB000E3FE7E497E4C08682060C1F80080FDF787
:102AC000EBFE2846FDF7D2FB7A48236802689A425B
:102AD00028D97948824202D23046012113E0774852
:102AE000824202D248460A210DE07548824202D253
:102AF0006420014607E07348824202D20A20494618
:102B000001E001203146B2FBF1F15843B0FBF1F096
:102B10006D49301A80B208806C490A88824203D21B
:102B2000088001E068480680FEF724FC0025FDF7D8
:102B300099FB0746FDF7A0FEDFF894A1DAF8004004
:102B40003CE0FDF78FFB0090FDF796FE614F387873
:102B5000401CC0B23870012801D1FFF79DFEFDF77F
:102B60009BFE0098FDF782FBD4F89C00C4E9278007
:102B7000FDF778FB0090FDF77FFE3878401E10F0DF
:102B8000FF0038700CD1FFF795FE5348008838B12C
:102B9000FDF782FE0098FDF769FBFFF759FE04E0A0
:102BA000FDF77AFE0098FDF761FB54F8A00F05448D
:102BB000FDF758FB0746FDF75FFE246AFDF76CFE44
:102BC0003846FDF753FB002CBBD1E5B13A488542AE
:102BD00002D23746012013E03848854202D24F46E0
:102BE0000A200DE03648854202D26427384607E0C5
:102BF0003448854202D20A27484601E00127304680
:102C0000B5FBF0F501E000270125FDF72BFB009057
:102C1000FDF732FEDAF80040FDF73EFE009821E0B5
:102C2000D4F8A0007843B0FBF5F080B2B04200D9F0
:102C30003046A4F88C00B4F88E10814201D2A4F87A
:102C40008E0004F1AC0201AB111D2046FEF73AFEE6
:102C5000FDF708FB8246FDF70FFED4F8C040FDF7F4
:102C60001BFE5046FDF702FB002CD9D11B48017812
:102C7000012904D180F8008001A8FEF7A5FAFDF72C
:102C800055FE0299401A16490A68824200D208602D
:102C900001AA00215846FEF7F3FEFEE61C5D00087F
:102CA000CC010020305D00085C010020C001002044
:102CB000C8010020C4010020801A060000093D0060
:102CC000005A62020084D717BC010020BE01002018
:102CD000D8010020A80100206C010020BA010020CA
:102CE000D001002030B51D4A89B0002111601C4A76
:102CF0001F4C11601B4A11601B4A11701B4A117056
:102D0000226842B11B4A1C4D13682D68AB4205D2A4
:102D100046F62C6108E046F62B6105E0174B1D785E
:102D20001F2D04D346F62A61018009B030BD03256A
:102D300005910691CDE90750114812682468006892
:102D4000CDE90202049101941878009000230D4A05
:102D50000DA11248FEF710FBE7E70000C0010020BC
:102D6000C8010020C4010020CC010020BA010020CD
:102D7000205D0008285D00082C5D0008185D000833
:102D8000245D0008512A000875432F4F532D4949EF
:102D9000492053746174205461736B0094270020A0
:102DA00038B50446022531B16B46022200F03AFBE9
:102DB000BDF8000028B184F836502046FFF71EFD0C
:102DC00038BD032084F83600F7E70000074B0022E7
:102DD000C0F8BC20196829B1C0F8C010C1F8BC0007
:102DE00018607047C0F8C020FAE70000D801002042
:102DF000D0E92F2100234AB181B1C2F8C010C1F837
:102E0000BC20C0F8C030C0F8BC307047054A116023
:102E100009B1C1F8BC30C0F8C0307047C2F8C0304A
:102E2000F1E70000D8010020044A00211160044AA3
:102E30001180044A1160018070470000D801002011
:102E4000DC010020D401002070B5002505608560FC
:102E50004560C560056145610446856129A0C4E9F6
:102E600007506562A562E5622563E5872564E5652F
:102E7000A4F86050002104F16400FFF7F1F96567E0
:102E8000A567C4F88050A4F888500020C4F8845086
:102E900004EB8001401CCD6710F0FF00F8D06564A2
:102EA000C4F8A450C4F8A850A56384F88A50C4F8A4
:102EB000B050C4F8AC50A5874FF00040C4E91205EB
:102EC00025656565A565A4F88C50A4F88E50C4F8F6
:102ED0009050C4F894503434FDF728FDC4E9190526
:102EE000C4F88050C4F8845004F8015B202004F832
:102EF000015B04F8015B04F8850B04A020C4C4E95D
:102F0000005070BD3F5461736B0000002000000052
:102F10002DE9FC5F9946DDE90C7592468B46044627
:102F2000FDF7A0F98046FDF7A7FC474E3078401C1E
:102F3000C0B23070012801D1FFF7AEFCFDF7ACFC48
:102F40004046FDF793F90CB94048046800202880FA
:102F500094F83600DFF8F880082852D2DFE800F055
:102F60000404262604042626CDE900754B46524665
:102F7000594604F16400FFF77BF9FDF773F9044645
:102F8000FDF77AFC3078401E10F0FF01317031D12E
:102F9000FFF790FCB8F8000060B3FDF77DFC204619
:102FA000FDF764F9BDE8FC5FFFF752BC94F834000C
:102FB0000228D9D153465A46214600200097FFF7F0
:102FC00074FAFDF74FF90446FDF756FC3078401EC1
:102FD00010F0FF01317001D1FFF76CFCFDF75CFCD4
:102FE0002046FDF743F95FEA09402AD4BDE8FC5FBB
:102FF000FDF7ECBFFDF750FC2046BDE8FC5FFDF798
:1030000035B9FDF72FF90446FDF736FC3078401E40
:1030100010F0FF0131700CD1FFF74CFCB8F8000044
:1030200038B1FDF739FC2046FDF720F9FFF710FC19
:1030300004E0FDF731FC2046FDF718F946F62D6057
:103040002880BDE8FC9F0000A8010020FC010020B2
:103050006C01002010B5044600F050FA94F83610C8
:10306000490704D42046BDE81040FFF75FBB10BD00
:103070002DE9F0410D460446FDF7F4F80746FDF74B
:10308000FBFB00262E8094F83600082864D2DFE887
:1030900000F0040404040D394955FDF7FDFB3846E2
:1030A000FDF7E4F847F25310288037E02F4D2878D9
:1030B000401CC0B22870012801D1FFF7EDFBFDF7DD
:1030C000EBFB3846FDF7D2F894F88A00401E10F06A
:1030D000FF0084F88A0004D184F836602046FFF7A8
:1030E000B9FFFDF7BFF80446FDF7C6FB2878401E80
:1030F00010F0FF01297001D1FFF7DCFBFDF7CCFBDD
:10310000204609E094F88A00401E10F0FF0084F881
:103110008A001BD101200EE0FDF7A8F8BDE8F041C0
:10312000FDF754BF94F88A00401E10F0FF0084F8A9
:103130008A000BD1022084F8360007E094F88A0058
:10314000401E10F0FF0084F88A0003D0FDF7A4FBB6
:103150003846E1E70320EEE7FDF79EFB3846FDF732
:1031600085F846F62D602880BDE8F081A801002092
:10317000044808B50068FEF7EBFA69460020FEF740
:10318000F9F908BDFC0100202DE9F84F9846914659
:103190008B460446FDF766F80646FDF76DFB594D74
:1031A0002878401CC0B22870012801D1FFF774FBB9
:1031B000FDF772FB3046FDF759F80CB95248046828
:1031C0000020524FC4F84090A8F8000094F8360050
:1031D00046F6C55A082872D2DFE800F033332F2FA5
:1031E00033332F2FFDF758FB2046FDF73FF8FFF74D
:1031F0002FFB04E0FDF750FB2046FDF737F8A8F859
:1032000000A00020BDE8F88F761C6664FDF72AF860
:103210000446FDF731FB2878401E10F0FF002870AF
:1032200047D1FFF747FB3888F0B3FDF735FB204661
:10323000FDF71CF8FFF70CFB62E094F83400072858
:1032400013D0666C701CDFD1FDF70CF80446FDF757
:1032500013FB2878401E10F0FF002870CAD1FFF73A
:1032600029FB38880028C5D0BCE700231A46214630
:103270001846CDF80090FFF718F9666CFCF7F2FFDE
:103280000446FDF7F9FA2878401E10F0FF00287078
:1032900001D1FFF70FFBFDF7FFFA2046FCF7E6FF31
:1032A0005FEA0B402CD401E003E008E0FDF78EFE5E
:1032B00026E0FDF7F1FA2046FCF7D8FF20E0FCF706
:1032C000D1FF0446FDF7D8FA2878401E10F0FF0021
:1032D00028700BD1FFF7EEFA388838B1FDF7DCFA29
:1032E0002046FCF7C3FFFFF7B3FA04E0FDF7D4FA7A
:1032F0002046FCF7BBFF46F62D60A8F8000000262C
:1033000030467FE7A8010020FC0100206C0100206E
:103310002DE9F0410D460446FCF7A4FF0746FDF7F2
:10332000ABFA334804B90468016832488C4209D1C9
:10333000017839B1FDF7B0FA3846FCF797FF46F649
:10334000635051E00021298094F8361001260829A5
:1033500043D2DFE801F0043032383A3A3A3A0546CF
:103360000078401CC0B22870012801D1FFF794FA00
:10337000FDF792FA3846FCF779FF042084F836000E
:1033800084F88A602046FFF739FAFCF76BFF0446A1
:10339000FDF772FA2878401E10F0FF01297001D164
:1033A000FFF788FAFDF778FA2046FCF75FFFBDE8E3
:1033B000F041FDF70BBE052000E0062084F8360042
:1033C00084F88A6005E00720F8E714F88A0F401CAB
:1033D0002070FDF761FA3846E7E7FDF75DFA3846F9
:1033E000FCF744FF46F62D602880BDE8F081000020
:1033F000FC010020A801002010B500200246074B68
:10340000074C06E003EBC001401C0A608A80CA80BA
:1034100080B221888842F5D310BD000068210020C9
:10342000445D0008F0B5324C002647F27E25246842
:10343000042A08D0B1B32E4D082A2D680D440BD0B4
:10344000C0E9135115E00A1B521E12F5803F2AD81D
:10345000521CC0E913120CE0826C0A44171B7F1E39
:103460008F4201D2C26400E0C564C16C0A1B0265D0
:103470008164204AC16C1288B1FBF2F502FB151180
:103480001D4A89B202EBC102918889B11168F1B17C
:10349000CD6C2D1B0D65076DAF4212D94D6965B11D
:1034A0002946F5E7FFE7C6640665C6611D80F0BDE5
:1034B00046618661012110600BE0C0E90561486149
:1034C00005E08C6974B1C0E9051460618861918878
:1034D000491C9180D48889B28C4200D2D180C261CB
:1034E0001E80F0BDC0E9051688611060EFE700009E
:1034F000E0010020445D00086821002010B5C1698A
:10350000002915D0002404650A68824204D142696A
:103510000A6032B1946104E0D0E905235A6102B136
:10352000936144618461C461C4648888401E88805A
:1035300010BD000010B500200246064B064C04E00A
:1035400003EBC001401CCA8080B221888842F7D3B7
:1035500010BD000068210020445D00082DE9F05FE7
:10356000FCF780FE0446FDF787F953480178491CB3
:10357000C9B20170012901D1FFF78EF9FDF78CF96D
:103580002046FCF773FEFDF7D1F94C4E83464C49BB
:1035900030684FF00309401C306009880025B0FBFB
:1035A000F1F201FB1200474980B22F4651F830403A
:1035B0004FF0040AC4B394F83600D4F814800828F5
:1035C0004DD2DFE800F04C044C104C254C32E06C3E
:1035D0003168421A2265884240D184F8367020460C
:1035E000FFF738FD3BE0E06C3168421A2265884203
:1035F00034D1E765A4F86070FDF798F9206420469F
:10360000FEF725FF2046FFF725FD84F8367020E001
:10361000E06C3168421A226588421FD184F836A0D6
:103620002046FFF76BFF1AE01CE0E06C3168421A9D
:103630002265884212D1E765A4F86070FDF776F93B
:1036400020642046FEF703FF2046FFF757FF84F86B
:1036500036A084F8359084F8347000E001254446A3
:10366000002DA7D0FDF762F91749A0EB0B000A68FF
:10367000824200D20860FCF7F5FD0446FDF7FCF835
:103680000D4A1078401E10F0FF0111700DD1FFF7A8
:1036900011F90E48008840B1FDF7FEF82046FCF70E
:1036A000E5FDBDE8F05FFFF7D3B8FDF7F5F820467C
:1036B000BDE8F05FFCF7DABDA8010020E0010020C2
:1036C000445D000868210020E40100206C01002016
:1036D0001CB5084C00216B4601AA0846FEF73AF8D3
:1036E000BDF800000028F5D120780128F2D1FFF7BD
:1036F00035FFEFE76001002030B504461A4889B075
:103700000025056019480560FFF776FE184A106825
:1037100040B11848184B01681B68994205D247F21E
:10372000132008E047F2122005E014490B781F2B04
:1037300004D347F21120208009B030BD0B2305953A
:103740000695CDE907340E4B006812681B68CDE979
:10375000023001920495087800900023094A0AA1DA
:103760000E48FDF709FEE7E7E0010020E401002034
:10377000385D0008405D00082C5D0008345D0008DD
:103780003C5D0008D136000875432F4F532D494941
:1037900049205469636B205461736B005C280020DE
:1037A00030B52A4989B00023294A0B60294C2A499F
:1037B00015681DB12468B4FBF5F203E022680A2401
:1037C000B2FBF4F20A601146244A274C274D1160DF
:1037D00023490B6023490B60002106E004EBC10282
:1037E000491C9380D38089B213602A889142F5D313
:1037F0001F4C216841B11F491F4D0A682D68AA421C
:1038000005D247F2483108E047F2473105E01B4A4C
:1038100015781F2D04D347F24631018009B030BD21
:103820000B2505930693CDE90750086814492468D1
:103830000968CDE9021004930194107800900023E8
:10384000104A11A11648FDF797FDE7E7E8010020AF
:10385000485D0008305D0008F4010020F8010020F8
:10386000F0010020EC010020F0230020585D00084A
:103870004C5D0008545D00082C5D0008465D0008A2
:10388000505D00086539000875432F4F532D494995
:10389000492054696D6572205461736B000000000B
:1038A0002429002070B5022280F82A20204A01290C
:1038B00013681ED0016AE1B11E4A19448161128861
:1038C0000025B1FBF2F402FB14121B4C92B204EB84
:1038D000C20214687CB1C91AC1611168D1B18C6986
:1038E000E41ACC61C669A6420ED90C6944B12146DE
:1038F000F5E7416AE0E705614561106001200BE0F2
:10390000C0E90451086105E04B6963B1C0E90413E3
:10391000186148619088401C9080D18880B28142B3
:1039200000D2D08070BDC0E9041548611060F1E795
:10393000F0010020585D0008F023002010B50020A1
:103940000246064B064C04E003EBC001401CCA8053
:1039500080B221888842F7D310BD0000F0230020F8
:10396000585D00081CB5DFF898B0DFF89880DFF8E4
:1039700098A000216B4601AA0846FDF7EBFE6846B9
:10398000FDF762FBFCF7D2FF0746D8F800004FF0C6
:103990000309401CC8F80000BBF800100026B0FB6B
:1039A000F1F301FB1300194980B251F83040ACB17A
:1039B000A169D8F80000256981420FD1204600F0A6
:1039C00027F8208D022816D084F82A90A26812B118
:1039D0002046E16890472C46002EE8D0FCF7A6FF71
:1039E000C41B6846FDF78AFBDAF80010A142C0D27A
:1039F000CAF80040BDE701212046FFF753FFE5E785
:103A0000585D0008F0010020EC010020F0230020A8
:103A100010B5104A816900241288B1FBF2F302FB51
:103A200013110D4A89B202EBC10102690B6883428E
:103A300003D10A602AB1546103E043691A6102B1FB
:103A40005361012280F82A20046144618888401E65
:103A5000888010BD585D0008F023002070B5044632
:103A60000C480D46044200D124B940F269410AA035
:103A700001F01CF9104E4DB1012D04D040F26A4105
:103A800005A001F013F9F069204301E0F069A043BB
:103A9000F06170BD003601812E2E5C46574C4942C4
:103AA0005C5372635C73746D3332663130785F726D
:103AB00063632E63000000000010024070B50446EE
:103AC0000C480D46044200D124B940F24A410AA0F4
:103AD00001F0ECF8104E4DB1012D04D040F24B41F5
:103AE00005A001F0E3F8B069204301E0B069A0430C
:103AF000B06170BD0200C0FF2E2E5C46574C49429B
:103B00005C5372635C73746D3332663130785F720C
:103B100063632E63000000000010024030B5204AAD
:103B20005168204B11F00C0103D0042901D0082961
:103B300001D0036012E05168536801F470114FF036
:103B4000020413F4803F04EB914102D053689B03BD
:103B500001D5154B00E0134B5943016051680F2309
:103B600003EA1111114B5C5C0168E140416054684B
:103B7000072505EA14241C5D21FA04F484605468C6
:103B800005EAD4241B5DD940C1605268032303EACF
:103B90009232064B1B1F9A5CB1FBF2F1016130BD02
:103BA0000010024000127A0000093D0006010020CA
:103BB0007047000008B5FDF731F8FDF745F800F053
:103BC000A7FC00204FF4164302220A21009001F0C6
:103BD00071FA08B105A003E001F088F820B10BA04C
:103BE000FCF758FB002008BD012008BD6672656522
:103BF0006D6F6462757320C9E8D6C3525455BBF229
:103C0000C4A3CABDCAA7B0DC0D0A0000CAB9C4DC8F
:103C10004D6F6462757350726F746F636F6C537421
:103C200061636BCAA7B0DC0D0A0000000CB500226E
:103C3000264800920192016841F4803101604FF4FE
:103C4000A063016801F4003101910099491C0091C1
:103C5000019911B900999942F3D10168890333D5CB
:103C6000012101911A490A6842F010020A600A68AB
:103C700022F003020A600A6842F002020A60416808
:103C8000416041684160416841F480614160416840
:103C900021F47C114160416841F4E8114160016800
:103CA00041F08071016001688901FCD5416821F013
:103CB00003014160416841F0020141604168C1F384
:103CC00081010229FAD10CBD01920CBD0010024005
:103CD00000200240064810B50078012807D1FDF702
:103CE0001FF9FDF743FFBDE81040FDF729B910BDEE
:103CF000600100200F4810B5016841F0010101602A
:103D000041680D4A1140416001680C4A1140016050
:103D1000016821F480210160416821F4FE014160C5
:103D20004FF41F018160FFF781FF05494FF00060EC
:103D3000086010BD001002400000FFF8FFFFF6FE13
:103D400008ED00E04FF0E020016921F0040101617D
:103D50000D490E4A0F4B0968B1FBF2F10C4AC9B28A
:103D6000117059434FF47A73B1FBF3F1012353807F
:103D7000026942F002020261491E4161016941F09B
:103D800001010161704700001801002000127A0053
:103D90000000002040420F0010B501218C07204692
:103DA00000F07CF9002808D00121204600F084F8BA
:103DB00002480068BDE81040004710BD30000020F8
:103DC00070B5044624480D46844234D0B4F1804F87
:103DD00031D0224884422ED0214884422BD0214821
:103DE000844228D02048844225D02048844222D0D2
:103DF0001F4884421FD01F4884421CD01E48844262
:103E000019D01E48844216D01D48844213D01D4844
:103E1000844210D01C4884420DD01C4884420AD0F1
:103E20001B48844207D01B48844204D040F284518E
:103E300019A000F03BFF55B1012D04D040F285518F
:103E400015A000F033FF208840F0800002E02088B9
:103E500020F08000208070BD002C01400004004054
:103E600000080040000C004000100040001400401A
:103E700000340140004C014000500140005401401A
:103E800000180040001C004000200040004001409D
:103E900000440140004801402E2E5C46574C4942E8
:103EA0005C5372635C73746D3332663130785F7467
:103EB000696D2E630000000070B5044621480D4670
:103EC000844234D0B4F1804F31D01F4884422ED088
:103ED0001E4884422BD01E48844228D01D4884426C
:103EE00025D01D48844222D01C4884421FD01C4843
:103EF00084421CD01B48844219D01B48844216D0EF
:103F00001A48844213D01A48844210D01948844277
:103F10000DD0194884420AD01848844207D0184866
:103F2000844204D040F6772116A000F0BFFE280A94
:103F300000D125B940F6782112A000F0B7FEE84381
:103F4000208270BD002C01400004004000080040A9
:103F5000000C0040001000400014004000340140FC
:103F6000004C014000500140005401400018004046
:103F7000001C00400020004000400140004401407F
:103F8000004801402E2E5C46574C49425C537263F8
:103F90005C73746D3332663130785F74696D2E6393
:103FA0000000000070B5044624480D46844234D019
:103FB000B4F1804F31D0224884422ED0214884422F
:103FC0002BD02148844228D02048844225D0204844
:103FD000844222D01F4884421FD01F4884421CD0F4
:103FE0001E48844219D01E48844216D01D4884427F
:103FF00013D01D48844210D01C4884420DD01C4868
:1040000084420AD01B48844207D01B48844204D013
:1040100040F2293119A000F049FE55B1012D04D01C
:1040200040F22A3115A000F041FE208840F0010046
:1040300002E0208820F00100208070BD002C0140AB
:104040000004004000080040000C00400010004048
:104050000014004000340140004C01400050014079
:104060000054014000180040001C004000200040A7
:104070000040014000440140004801402E2E5C46B3
:10408000574C49425C5372635C73746D33326631D2
:1040900030785F74696D2E630000000070B50446CF
:1040A0002C4800260D46844234D0B4F1804F31D0E4
:1040B000294884422ED0294884422BD02848844263
:1040C00028D02848844225D02748844222D0274837
:1040D00084421FD0264884421CD02648844219D0EE
:1040E0002548844216D02548844213D0244884426F
:1040F00010D0244884420DD0234884420AD023485B
:10410000844207D02248844204D040F64D2121A0A9
:1041100000F0CCFD012D12D0022D10D0042D0ED0B8
:10412000082D0CD0102D0AD0202D08D0402D06D0FF
:10413000802D04D040F64E2116A000F0B7FD218A54
:10414000A089294200EA050001D000B101263046CD
:1041500070BD0000002C0140000400400008004039
:10416000000C0040001000400014004000340140EA
:10417000004C014000500140005401400018004034
:10418000001C00400020004000400140004401406D
:10419000004801402E2E5C46574C49425C537263E6
:1041A0005C73746D3332663130785F74696D2E6381
:1041B0000000000070B50446284816460D468442AB
:1041C00034D0B4F1804F31D0254884422ED02548D8
:1041D00084422BD02448844228D02448844225D0CD
:1041E0002348844222D0234884421FD0224884425C
:1041F0001CD02248844219D02148844216D021483C
:10420000844213D02048844210D0204884420DD0EC
:104210001F4884420AD01F48844207D01E48844267
:1042200004D040F26B311DA000F040FD280A00D1FF
:1042300025B94FF45B7119A000F038FD4EB1012E85
:1042400004D040F26D3115A000F030FDA089284364
:1042500001E0A089A843A08170BD0000002C0140AE
:104260000004004000080040000C00400010004026
:104270000014004000340140004C01400050014057
:104280000054014000180040001C00400020004085
:104290000040014000440140004801402E2E5C4691
:1042A000574C49425C5372635C73746D33326631B0
:1042B00030785F74696D2E630000000070B50446AD
:1042C0001D480D46844234D0B4F1804F31D01B4894
:1042D00084422ED01A4884422BD01A48844228D0D7
:1042E0001948844225D01948844222D01848844273
:1042F0001FD0184884421CD01748844219D0174850
:10430000844216D01648844213D01648844210D0F6
:10431000154884420DD0154884420AD0144884427E
:1043200007D01448844204D040F6DB0112A000F00C
:10433000BDFCA58470BD0000002C014000040040BD
:1043400000080040000C0040001000400014004035
:1043500000340140004C0140005001400054014035
:1043600000180040001C00400020004000400140B8
:1043700000440140004801402E2E5C46574C494203
:104380005C5372635C73746D3332663130785F7482
:10439000696D2E63000000002DE9F05F444FDFF8E7
:1043A0001481DFF81491DFF814A1DFF814B1454E41
:1043B0000D460446B8422ED0B4F1804F2BD0444570
:1043C00029D04C4527D0544525D05C4523D03E48C4
:1043D000844220D0B4421ED03C4884421BD03C488A
:1043E000844218D03B48844215D03B48844212D0C6
:1043F0003A4884420FD03A4884420CD0394884422B
:1044000009D03948844206D03848844203D0E72195
:1044100037A000F04BFC688858B1102809D020283C
:1044200007D0402805D0602803D0E82130A000F054
:104430003DFCE88848B1B0F5807F06D0B0F5007F3C
:1044400003D0E9212AA000F031FC2088BC420AD028
:10445000B44208D0B4F1804F05D0444503D04C4558
:1044600001D0544503D120F07001688808435C45B1
:1044700006D015498C4203D020F44071E8880843E7
:104480002080A888A08528882085BC420AD0B44214
:1044900008D01448844205D01348844202D01348FF
:1044A000844201D1287A20860120A082BDE8F09FB5
:1044B000002C01400004004000080040000C0040B7
:1044C000001000400034014000140040004C014046
:1044D000005001400054014000180040001C004002
:1044E00000200040004001400044014000480140DD
:1044F0002E2E5C46574C49425C5372635C73746D5C
:104500003332663130785F74696D2E6300000000CD
:1045100030B585B001210420FFF7D0FA0121042035
:10452000FFF7CCFA01218803FFF7C8FA4FF40070B7
:10453000ADF8100001248DF812401820164D8DF8AA
:10454000130004A92846FCF733FAA102ADF81010B5
:104550008DF8124004208DF8130004A92846FCF7BA
:1045600027FA4FF4E13000900020ADF80400ADF8D8
:104570000600ADF80800ADF80C000C20074CADF8B3
:104580000A006946204600F045FA0121204600F065
:1045900091F805B030BD000000080140003801402E
:1045A00070B5FCF7BDFC114C40F22555294620465C
:1045B00000F022F9012806D10D48006880472946FD
:1045C000204600F019F840F226652946204600F002
:1045D00013F9012806D1074800688047294620467C
:1045E00000F00AF8BDE87040FCF7AABC00440040A7
:1045F000280000202C0000202DE9F047204EDFF895
:104600008480DFF884900D460446B0420ED04445C5
:104610000CD04C450AD01D48844207D01C48844227
:1046200004D040F20A411BA000F040FBA5F5C06099
:1046300040F66A1726380ED0A5F5A06025380AD0B6
:10464000A5F50060463806D0BD4204D040F20B41CB
:1046500010A000F02BFBBD420AD1B44208D0444563
:1046600006D04C4504D040F20F410AA000F01EFBDA
:10467000290A01208840C0432080BDE8F08700005F
:10468000003801400044004000480040004C004019
:10469000005000402E2E5C46574C49425C537263DA
:1046A0005C73746D3332663130785F757361727428
:1046B0002E63000070B5044612480D46844210D0A7
:1046C000114884420DD0114884420AD010488442D7
:1046D00007D01048844204D04FF4B1710EA000F00E
:1046E000E5FA55B1012D04D040F263110AA000F0A3
:1046F000DDFAA08940F4005002E0A08920F40050C7
:10470000A08170BD003801400044004000480040D6
:10471000004C0040005000402E2E5C46574C494251
:104720005C5372635C73746D3332663130785F75DD
:10473000736172742E6300002DE9F047214F00264B
:10474000DFF88480DFF884900C460546B8420ED02E
:1047500045450CD04D450AD01D48854207D01D481F
:10476000854204D040F26E311BA000F09FFA012C6C
:1047700021D0802C1FD0402C1DD0202C1BD0102CE1
:1047800019D0B4F5807F16D0B4F5007F08D0082C7E
:1047900011D0042C0FD0022C0DD040F26F3107E065
:1047A000BD4208D0454506D04D4504D040F2733196
:1047B00009A000F07BFA2888204200D0012630466C
:1047C000BDE8F08700380140004400400048004048
:1047D000004C0040005000402E2E5C46574C494291
:1047E0005C5372635C73746D3332663130785F751D
:1047F000736172742E6300002DE9F047DFF8D880F2
:104800000026DFF8D890DFF8D8A00C4605464045D2
:104810000ED04D450CD055450AD03248854207D0C0
:104820003148854204D040F2C13130A000F03EFA58
:10483000282C32D0A4F5E06040F66A1727381FD044
:10484000A4F5C06026381BD0A4F5A060253817D089
:10485000A4F58060243813D0A4F5006046380FD04A
:10486000BC420DD0B4F5587F17D0B4F5187F14D0E2
:10487000B4F5B07F11D040F2C2311CA000F016FA9E
:10488000BC420AD1454508D04D4506D0554504D017
:1048900040F2C63115A000F009FA04F01F0201230E
:1048A000C4F3421103FA02F0012910D0022910D0FA
:1048B000A98A4FEA142203FA02F32A88014202EA83
:1048C000030201D002B101263046BDE8F087A98974
:1048D000EFE7298AEDE7000000380140004400407E
:1048E00000480040004C0040005000402E2E5C4626
:1048F000574C49425C5372635C73746D333266315A
:1049000030785F75736172742E6300002DE9F04793
:10491000DFF8CC80DFF8CC90DFF8CCA016460C4650
:10492000054640450ED04D450CD055450AD02F4880
:10493000854207D02E48854204D040F289112DA02F
:1049400000F0B4F940F66A17282C1CD0A4F5E060FA
:10495000273818D0A4F5C060263814D0A4F5A0607C
:10496000253810D0A4F5806024380CD0A4F5006060
:10497000463808D0BC4206D0602C04D04FF4C57134
:104980001CA000F093F936B1012E04D040F28B1137
:1049900018A000F08BF9BC420AD1454508D04D451E
:1049A00006D0554504D040F28F1112A000F07EF9D8
:1049B00004F01F020120C4F342119040012906D0E7
:1049C000022906D0143529682EB1014304E00C35C4
:1049D000F9E71035F7E781432960BDE8F08700006B
:1049E000003801400044004000480040004C0040B6
:1049F000005000402E2E5C46574C49425C53726377
:104A00005C73746D3332663130785F7573617274C4
:104A10002E6300002DE9F0435B4E5C4FDFF87081A0
:104A200085B00D460446B0420DD0BC420BD0444583
:104A300009D05848844206D05748844203D0B82150
:104A400056A000F033F928685C49401E884203D321
:104A5000B92152A000F02AF9A8884FF4805928B152
:104A6000484503D0BA214DA000F020F9E88858B19C
:104A7000484509D0B0F5005F06D0B0F5405F03D0DF
:104A8000BB2146A000F012F9288948B1B0F5806F2B
:104A900006D0B0F5C06F03D0BC2140A000F006F9ED
:104AA000688930F00C0100D118B9BD213BA000F09D
:104AB000FDF8A889C0B1B0F5807F0BD0B0F5007FBC
:104AC00008D0B0F5407F05D0BE2134A000F0EEF84C
:104AD000A88948B1B44207D0BC4205D0444503D0B0
:104AE000C2212EA000F0E2F8208A4CF6FF710840A7
:104AF000E98801432182A1894EF6F3100140A8887C
:104B00002A8910436A890A431043A081A08A4FF67C
:104B1000FF410840A9890143A1826846FEF7FEFFD4
:104B2000B44201D1039800E00298A189090400EB86
:104B3000C00101EB0010296801D5490000E089009F
:104B4000B0FBF1F06422B0FBF2F109010B096FF048
:104B500018056B4300EB8300A3891D044FF032035B
:104B600006D503EBC000B0FBF2F000F0070005E053
:104B700003EB0010B0FBF2F000F00F0008432081BF
:104B800005B0BDE8F083000000380140004400405B
:104B900000480040004C0040005000402E2E5C4673
:104BA000574C49425C5372635C73746D33326631A7
:104BB00030785F75736172742E63000020AA440020
:104BC00010B504460B48844210D00B4884420DD0E7
:104BD0000A4884420AD00A48844207D009488442DD
:104BE00004D04FF4197108A000F060F8A088C0F359
:104BF000080010BD0038014000440040004800405B
:104C0000004C0040005000402E2E5C46574C49425C
:104C10005C5372635C73746D3332663130785F75E8
:104C2000736172742E63000070B5044610480D461F
:104C3000844210D00F4884420DD00F4884420AD0DD
:104C40000E48844207D00E48844204D040F25321DB
:104C50000CA000F02BF8B5F5007F04D34FF41571CC
:104C600008A000F023F8C5F30800A08070BD000084
:104C7000003801400044004000480040004C004023
:104C8000005000402E2E5C46574C49425C537263E4
:104C90005C73746D3332663130785F757361727432
:104CA0002E630000FEE77047704700000C46054683
:104CB0002246294601A0FBF7EDFAF9E757726F6E1D
:104CC0006720706172616D65746572732076616CC6
:104CD00075653A2066696C65202573206F6E206CBF
:104CE000696E652025640D0A0000000070B5064D50
:104CF00000242878012802D00624204670BD2869A7
:104D0000804700202870F8E70800002070B50C46A6
:104D10000988002605292FD1417840F2CF750A0273
:104D200081781143C278491C1302027989B21A436F
:104D3000531EAB4220D200232380012500F8015BE3
:104D400023885B1C2380530703D005EBD203DDB21D
:104D500001E0C2F3C70500F8015B23885B1C2380D8
:104D6000002300F0D7FA18B100F0FAFB064604E081
:104D700020882844208000E00326304670BD70B5AE
:104D80000C460988002605292FD1417840F2CF75BD
:104D90000A0281781143C278491C1302027989B250
:104DA0001A43531EAB4220D200232380022300F873
:104DB000013B23885B1C2380530704D0012303EBB2
:104DC000D203DDB201E0C2F3C70500F8015B23881E
:104DD0005B1C238000F0D8FA18B100F0C1FB064636
:104DE00004E020882844208000E00326304670BD7F
:104DF00070B50C4609880026052928D14178057927
:104E00000A0281781143C278491C45EA02256A1ECC
:104E100089B27C2A1BD800222280032200F8012BB1
:104E200022880023521C22806A0000F8012B22886D
:104E3000521C22802A4600F0CBFA18B100F090FBF9
:104E4000064605E0208800EB4500208000E00326B0
:104E5000304670BD70B50C4609880026052927D15B
:104E600041788278057942EA0122521C91B2C278D7
:104E700045EA02256A1E7C2A1AD2002222800422D8
:104E800000F8012B2288521C22806A0000F8012BB6
:104E90002288521C22802A4600F0D0FA18B100F075
:104EA0005FFB064605E0208800EB4500208000E01F
:104EB0000326304670BD2DE9F041044608880027DE
:104EC0000D460A2842D3607826790102A078227A1A
:104ED0000843401C1FFA80F8E07846EA0026607913
:104EE000731E0102A0790843401C81B2E0797C2B3B
:104EF00042EA0022607A28D83AB3792A25D8B0EB62
:104F0000420F22D1012304F10A0000F061FA98B99E
:104F100000212980172121702988601C491C2980C3
:104F2000710000F8011B29880023491C29803246A2
:104F3000414600F04DFA18B100F012FB074605E0BB
:104F4000288800EB4600288000E003273846BDE8AB
:104F5000F081000070B5064C0D4606492288401CC1
:104F6000FBF749FA2088401C2880002070BD000013
:104F7000C0000020B80F002038B50988002405299A
:104F80000BD141780A0281781143491C027989B218
:104F90001AB9C278FF2A03D012B10324204638BDC3
:104FA00000228DF80120C078FF280CD08DF8002059
:104FB00001231A46684600F0ADF90028EED000F053
:104FC000CFFA0446EAE701208DF80000F0E710B5BB
:104FD00009880024052902D00324204610BD417809
:104FE00001230A028178C01C1143491C89B21A4668
:104FF00000F0EEF90028F0D000F0B2FA0446ECE739
:105000002DE9F0410D4609880024052926D941786B
:105010008278437942EA0122521C96B2C178027921
:1050200042EA0122510704D0012101EBD201C9B2A9
:1050300001E0C2F3C701571EB7F5F66F0ED29942D1
:105040000CD101233146801D00F064F918B100F045
:1050500087FA044603E00520288000E00324204668
:10506000BDE8F08170B50D460988002406291DD3DE
:1050700041780A0281781143C278491C13020279EF
:1050800089B21A434379561E772E0FD85606360E2C
:105090009E420BD10123801D00F09AF918B100F057
:1050A0005FFA044603E00520288000E00324204640
:1050B00070BD00002DE9F0411C46069B17460646D0
:1050C00029B1F72903D8134D084629710EB10224DE
:1050D0001BE011492961114969611149E9601149D0
:1050E000A9610021E96110492962104969621049EA
:1050F000A9622246394600F077F8040005D100F095
:1051000079FB28B16E71012028702046BDE8F0813E
:105110000324FAE708000020E552000801530008C4
:10512000755200082552000891590008395A0008A4
:10513000F959000838B52B4C207808B1062038BD45
:10514000684600F049FB012849D19DF80000E8B30A
:10515000012802D0022842D10FE0224AA369921D01
:10516000911CC81F984788BB60782179884200D07D
:1051700060BB022000F046FB31E0A0680121194B22
:105180000578A570E17000212C3313F8312062B14D
:10519000AA4207D103EBC1014A681249891D904711
:1051A000E07002E0491C1029EFDB607870B1E27812
:1051B00082B10020E080A07840F08001A0680170FA
:1051C000E188491C89B2E180425400E007E0E088B0
:1051D000401CE080D4E90213E2882079984700203F
:1051E00038BD00000800002070B5154608460024B0
:1051F0000822294600F018FB01280DD1B5F5964F7D
:1052000001D9232003E006496800B1FBF0F080B229
:1052100000F07EFB012800D00324204670BD000072
:10522000A07F17002DE9F041104D07461646A888CB
:1052300088460024FF2801D9FBF7D2F8A888042863
:1052400004D3A9880A4800F051FA18B10524204671
:10525000BDE8F081064800783870A888C01E30800C
:105260000348401CC8F80000F1E70000B40000202B
:10527000B80E002070B5194C03460025607801284F
:1052800002D00525284670BD491E0126A1600846AA
:1052900066800B70618811446180618800F026FA95
:1052A000014660880E4A1318401C6080197060889F
:1052B000090A0244401C608011702670A0680078C2
:1052C00000F01CFBA068401CA0606088401E60804D
:1052D0000121002000F03CFAD4E70000B4000020D7
:1052E000B80E0020054910B5002048700146012085
:1052F00000F02EFABDE8104000F059BAB4000020CA
:1053000010B50021084600F023FABDE8104000F077
:1053100039BA00002DE9F04105460027144661B373
:105320000819512829D8491E8EB28BB1012B25D1DD
:1053300020E0082C01DD082000E02046C2B2314602
:10534000104800F0A7FB083605F8010BB6B2083C80
:10535000002CEEDC12E015F8013B082C01DD0820E2
:1053600000E02046C2B23146064800F0A4FB0836F1
:10537000B6B2083C002CEEDC00E001273846BDE860
:10538000F0810000EC0000202DE9F04114460546B4
:105390000027B9B10819512814DC491E8EB20EE05D
:1053A000082C01DD082000E02046C2B23146074843
:1053B00000F070FB083605F8010BB6B2083C002C73
:1053C000EEDC00E001273846BDE8F081F600002061
:1053D00070B500240DB2012D2ADB8D180B2D27D8B6
:1053E000491E154D09B27BB1012B22D11DE035F8C4
:1053F00011301B0A00F8013B15F81130491C521EF0
:1054000000F8013B09B292B2002AF0D111E010F885
:10541000013B1B0225F8113010F8016B334325F8CE
:105420001130491C521E09B292B2002AEFD100E09D
:105430000124204670BD0000D800002030B50024B3
:10544000B9B18B180B2B14D80B4B1B88C91A0A4BFC
:105450009B1C0BE033F81150521E2D0A00F8015B23
:1054600013F8115000F8015B92B2491C002AF1D1E7
:1054700000E00124204630BDC200002070B5074D79
:10548000044640212846FFF757F90028F9D0E1B239
:105490002846FFF7C9FB204670BD000000380140D8
:1054A000094C4FF4FA756E0020212046FBF72EFBC5
:1054B0002846FBF743FA20212046FBF76BFB3046DA
:1054C000FBF73CFAF0E70000000C0140094C4FF4F8
:1054D0007A756E1020212046FBF718FB2846FBF753
:1054E0002DFA20212046FBF755FB3046FBF726FA24
:1054F000F0E700000018014000B58BB0FAF7AEFEEF
:1055000009A8FBF74DFC002009A90322059006908D
:10551000CDE90721094980230A6BCDE903301E201C
:105520008DE807000023064A06A10948FBF724FF7F
:1055300009A8FBF71DFE0BB0002000BDB80C002031
:1055400079550008537461727420205461736B00A4
:1055500008020020FFF7EEFD0520FBF7EFF9F9E761
:10556000002804D0012803D0072803D00420704766
:1055700002207047062070472DE9F0478AB0FEF7F9
:10558000E1FBFEF717FBFBF70DF9FBF78EFBFBF7D3
:1055900071FB09A8FBF794FEFBF750F909AA0A2151
:1055A0000120FBF77FFD00240326CDE9064609AD67
:1055B0004FF00C0A2A49089505940A208DE8030447
:1055C00080272748CDE903742346264A26A1C838F8
:1055D000FBF7D2FECDE906464FF00609264A0895AC
:1055E000059407208DE805024FF040082248CDE9D8
:1055F00003840023214A22A1C838FBF7BDFECDE970
:105600000646224A0895059408208DE805021F48A1
:10561000CDE9038400231E4A1EA1C838FBF7ACFE67
:10562000CDE906461E490895059405208DE803043A
:105630001B48CDE9037400231A4A1BA1C838FBF7A5
:105640009BFE09A91C48FBF795FFBDF8240028B173
:105650001AA0FAF71FFE0AB0BDE8F0871DA0F8E710
:105660009803002019570008557361727431202087
:105670005461736B0000000060060020A154000814
:105680006C65643120205461736B00002808002091
:10569000CD5400086C65643220205461736B0000A7
:1056A000F0090020555500086D6F64627573202065
:1056B0005461736B0000000008020020BFAACABC3E
:1056C000C8CECEF1C9BEB3FDB3C9B9A621200D0A1B
:1056D00000000000BFAACABCC8CECEF1C9BEB3FD4F
:1056E000B3C9B9A6A3A10D0A0000000070B5094D09
:1056F000FF231A4605F5807605E010F8014B54406B
:105700002A5D5A40335D491E89B2F6D242EA03202F
:1057100070BD0000E85A0008064C64254FF4FA7684
:105720002088B0FBF5F104A0FAF7B4FD3046FBF792
:1057300005F9F5E7BC010020435055B5C4CAB9D3FB
:10574000C3C2CACEAAA3BA2564252520200D0A000B
:1057500070B50C460A4D40F2255108B1012200E017
:1057600000222846FFF7D2F840F226610CB1012250
:1057700000E000222846BDE87040FFF7C7B80000EF
:105780000044004010B501218C072046FEF794FB31
:10579000002201212046FEF70DFD00212046FEF7E4
:1057A0008DFD2046BDE810400021FEF7FBBB10B583
:1057B00001218C072046FEF77FFB0122114620467F
:1057C000FEF7F8FC00212046FEF778FD2046BDE8F4
:1057D00010400121FEF7E6BB0549024600204B7848
:1057E000002B04D00878107000204870012070470A
:1057F000000100200249002048700120704700008D
:1058000000010020024901224A70087010467047CA
:105810000001002010B504460248FFF7D1F92070BE
:10582000012010BD004400402DE9F043894687B0B7
:105830001D46904601210420FEF740F90121042075
:10584000FEF73CF901214804FEF708F90424ADF8FD
:10585000104001268DF812601820264F8DF8130095
:1058600004A93846FBF7A4F80820ADF810008DF81D
:1058700012608DF8134004A93846FBF799F800240C
:1058800065B3022D2DD04FF4C060ADF80800B8F11B
:10589000090F29D0ADF804400C20174DADF80A00CF
:1058A000CDF80090ADF80640ADF80C4069462846AA
:1058B000FFF7B0F826208DF814008DF815608DF8EC
:1058C00016408DF8176005A8FBF714FA0121284649
:1058D000FEF7F0FE07B00120BDE8F083ADF8084008
:1058E000D5E74FF48060D0E74FF48050ADF8040066
:1058F000D2E70000000801400044004010B5014616
:105900000248FFF791F9012010BD0000004400405B
:105910007FB505461D4844F620610068B0FBF1F4F0
:1059200001210846641EFEF799F8ADF80450ADF861
:10593000004000244FF08045ADF80640ADF802402D
:1059400069462846FEF728FD01212846FEF738FA69
:105950001C208DF80C0001218DF80D108DF80E40E3
:105960008DF80F1003A8FBF7C5F901212846FEF7B3
:10597000A3FA002201212846FEF71CFC002128463C
:10598000FEF710FB04B0012070BD000018010020DC
:1059900038B5174C0025207808B1FAF721FD684684
:1059A000FFF738FF617831B1124A012907D0022987
:1059B00010D0032901D1FFF7FAFE284638BD002098
:1059C000A0809DF80000A1880A44491CA1801070A5
:1059D00002200BE0A088FF2807D89DF80010A088BF
:1059E0000244401CA0801170E5E703206070E2E7EC
:1059F000B4000020B80E002070B50E4D0024687869
:105A000070B102280BD003280DD0687858B168789F
:105A1000022808D06878032805D0FAF7E1FC0120B5
:105A2000FFF7F0FE0446FFF7ADFE01206870204648
:105A300070BD0000B400002070B5154C00256078E2
:105A4000012801D0FAF7CCFC217811B101291CD131
:105A500004E000210120FFF77BFE16E0608850B1D2
:105A6000A0680078FFF74AFFA068401CA06060882B
:105A7000401E608009E00320FFF7C4FE05460021B8
:105A80000120FFF765FE00202070284670BD000051
:105A9000B400002010B5CB085C4201EBC404012126
:105AA0009140C25C1844407842EA0020E040491E20
:105AB0000840C0B210BD70B5082A01D9FAF790FCB1
:105AC000CC08654201EBC5018B40012595406D1E58
:105AD0008D400219015D567841EA0621A943194318
